{
  "contractName": "TicTacToe",
  "abi": [
    {
      "constant": false,
      "inputs": [
        {
          "name": "newBoard",
          "type": "string"
        }
      ],
      "name": "setBoard",
      "outputs": [],
      "payable": false,
      "stateMutability": "nonpayable",
      "type": "function"
    },
    {
      "constant": true,
      "inputs": [],
      "name": "getBoard",
      "outputs": [
        {
          "name": "",
          "type": "string"
        }
      ],
      "payable": false,
      "stateMutability": "view",
      "type": "function"
    },
    {
      "constant": true,
      "inputs": [
        {
          "name": "ownerAddress",
          "type": "address"
        }
      ],
      "name": "getGame",
      "outputs": [
        {
          "name": "",
          "type": "string"
        }
      ],
      "payable": false,
      "stateMutability": "view",
      "type": "function"
    },
    {
      "constant": false,
      "inputs": [
        {
          "name": "mark",
          "type": "string"
        },
        {
          "name": "move",
          "type": "uint256"
        }
      ],
      "name": "makeMove",
      "outputs": [],
      "payable": false,
      "stateMutability": "nonpayable",
      "type": "function"
    },
    {
      "constant": false,
      "inputs": [],
      "name": "startGame",
      "outputs": [],
      "payable": false,
      "stateMutability": "nonpayable",
      "type": "function"
    }
  ],
  "bytecode": "0x608060405234801561001057600080fd5b50610700806100206000396000f30060806040526004361061006d576000357c0100000000000000000000000000000000000000000000000000000000900463ffffffff1680633264a34b146100725780638d1a4b2814610102578063a357e3cd146101be578063d65ab5f214610227578063efc397d71461023e575b600080fd5b34801561007e57600080fd5b506100876102b1565b6040518080602001828103825283818151815260200191508051906020019080838360005b838110156100c75780820151818401526020810190506100ac565b50505050905090810190601f1680156100f45780820380516001836020036101000a031916815260200191505b509250505060405180910390f35b34801561010e57600080fd5b50610143600480360381019080803573ffffffffffffffffffffffffffffffffffffffff169060200190929190505050610353565b6040518080602001828103825283818151815260200191508051906020019080838360005b83811015610183578082015181840152602081019050610168565b50505050905090810190601f1680156101b05780820380516001836020036101000a031916815260200191505b509250505060405180910390f35b3480156101ca57600080fd5b50610225600480360381019080803590602001908201803590602001908080601f0160208091040260200160405190810160405280939291908181526020018383808284378201915050505050509192919290505050610433565b005b34801561023357600080fd5b5061023c61044d565b005b34801561024a57600080fd5b506102af600480360381019080803590602001908201803590602001908080601f0160208091040260200160405190810160405280939291908181526020018383808284378201915050505050509192919290803590602001909291905050506104d7565b005b606060018054600181600116156101000203166002900480601f0160208091040260200160405190810160405280929190818152602001828054600181600116156101000203166002900480156103495780601f1061031e57610100808354040283529160200191610349565b820191906000526020600020905b81548152906001019060200180831161032c57829003601f168201915b5050505050905090565b60606000808373ffffffffffffffffffffffffffffffffffffffff1673ffffffffffffffffffffffffffffffffffffffff1681526020019081526020016000208054600181600116156101000203166002900480601f0160208091040260200160405190810160405280929190818152602001828054600181600116156101000203166002900480156104275780601f106103fc57610100808354040283529160200191610427565b820191906000526020600020905b81548152906001019060200180831161040a57829003601f168201915b50505050509050919050565b806001908051906020019061044992919061062f565b5050565b6040805190810160405280600481526020017f626c6168000000000000000000000000000000000000000000000000000000008152506000803373ffffffffffffffffffffffffffffffffffffffff1673ffffffffffffffffffffffffffffffffffffffff16815260200190815260200160002090805190602001906104d492919061062f565b50565b60608060018054600181600116156101000203166002900480601f0160208091040260200160405190810160405280929190818152602001828054600181600116156101000203166002900480156105705780601f1061054557610100808354040283529160200191610570565b820191906000526020600020905b81548152906001019060200180831161055357829003601f168201915b5050505050915083905080600081518110151561058957fe5b9060200101517f010000000000000000000000000000000000000000000000000000000000000090047f01000000000000000000000000000000000000000000000000000000000000000282848151811015156105e257fe5b9060200101907effffffffffffffffffffffffffffffffffffffffffffffffffffffffffffff1916908160001a905350816001908051906020019061062892919061062f565b5050505050565b828054600181600116156101000203166002900490600052602060002090601f016020900481019282601f1061067057805160ff191683800117855561069e565b8280016001018555821561069e579182015b8281111561069d578251825591602001919060010190610682565b5b5090506106ab91906106af565b5090565b6106d191905b808211156106cd5760008160009055506001016106b5565b5090565b905600a165627a7a72305820f4f210aa47f03de715a846065f5ae22b18db1c3c6e12d7cddcb22cef67c842120029",
  "source": "pragma solidity ^0.4.19;\n\ncontract TicTacToe {\n    mapping(address => string) games;\n    string board;\n\n    function setBoard(string newBoard) public {\n      board = newBoard;\n    }\n\n    function getBoard() public view returns (string) {\n      return board;\n    }\n\n    function getGame(address ownerAddress) public view returns (string) {\n      return games[ownerAddress];\n    }\n\n    function makeMove(string mark, uint move) public {\n      bytes memory tempBoard = bytes(board);\n      bytes memory byteMark = bytes(mark);\n\n      tempBoard[move] = byteMark[0];\n\n      board = string(tempBoard);\n    }\n\n    function startGame() public {\n      games[msg.sender] = \"blah\";\n    }\n}\n",
  "sourcePath": "/Users/takagoto/work/waza/tictactaka/solidity/contracts/tictactoe.sol",
  "compiler": {
    "name": "solc",
    "version": "0.4.24+commit.e67f0147.Emscripten.clang"
  },
  "schemaVersion": "2.0.1",
  "updatedAt": "2019-07-26T19:40:03.824Z"
}